{
  "abi": [
    {
      "inputs": [
        {
          "internalType": "address",
          "name": "_bitUser",
          "type": "address"
        },
        {
          "internalType": "address",
          "name": "_web3Club",
          "type": "address"
        }
      ],
      "stateMutability": "nonpayable",
      "type": "constructor"
    },
    {
      "inputs": [
        {
          "internalType": "string",
          "name": "_clubName",
          "type": "string"
        },
        {
          "internalType": "string",
          "name": "_clubDescription",
          "type": "string"
        },
        {
          "internalType": "string",
          "name": "_clubProfilePic",
          "type": "string"
        },
        {
          "internalType": "string",
          "name": "_clubcategory",
          "type": "string"
        },
        {
          "internalType": "address",
          "name": "_admin",
          "type": "address"
        }
      ],
      "name": "addClub",
      "outputs": [],
      "stateMutability": "nonpayable",
      "type": "function"
    },
    {
      "inputs": [
        {
          "internalType": "string",
          "name": "_postContent",
          "type": "string"
        },
        {
          "internalType": "uint256",
          "name": "_clubId",
          "type": "uint256"
        },
        {
          "internalType": "address",
          "name": "_postedBy",
          "type": "address"
        }
      ],
      "name": "addPost",
      "outputs": [],
      "stateMutability": "nonpayable",
      "type": "function"
    },
    {
      "inputs": [
        {
          "internalType": "address",
          "name": "_userAddress",
          "type": "address"
        },
        {
          "internalType": "string",
          "name": "_userName",
          "type": "string"
        },
        {
          "internalType": "string",
          "name": "_userDescription",
          "type": "string"
        },
        {
          "internalType": "string",
          "name": "_profilepic",
          "type": "string"
        }
      ],
      "name": "addUser",
      "outputs": [],
      "stateMutability": "nonpayable",
      "type": "function"
    },
    {
      "inputs": [
        {
          "internalType": "address",
          "name": "_owner",
          "type": "address"
        }
      ],
      "name": "blockOwner",
      "outputs": [],
      "stateMutability": "nonpayable",
      "type": "function"
    },
    {
      "inputs": [],
      "name": "blockedOwnerCount",
      "outputs": [
        {
          "internalType": "uint256",
          "name": "",
          "type": "uint256"
        }
      ],
      "stateMutability": "view",
      "type": "function"
    },
    {
      "inputs": [
        {
          "internalType": "address",
          "name": "",
          "type": "address"
        }
      ],
      "name": "blockedOwnerToOwnerId",
      "outputs": [
        {
          "internalType": "uint256",
          "name": "",
          "type": "uint256"
        }
      ],
      "stateMutability": "view",
      "type": "function"
    },
    {
      "inputs": [],
      "name": "ownerCount",
      "outputs": [
        {
          "internalType": "uint256",
          "name": "",
          "type": "uint256"
        }
      ],
      "stateMutability": "view",
      "type": "function"
    },
    {
      "inputs": [
        {
          "internalType": "address",
          "name": "",
          "type": "address"
        }
      ],
      "name": "ownerToOwnerId",
      "outputs": [
        {
          "internalType": "uint256",
          "name": "",
          "type": "uint256"
        }
      ],
      "stateMutability": "view",
      "type": "function"
    },
    {
      "inputs": [
        {
          "internalType": "address",
          "name": "_newOwner",
          "type": "address"
        }
      ],
      "name": "setOwner",
      "outputs": [],
      "stateMutability": "nonpayable",
      "type": "function"
    }
  ],
  "bytecode": "608060405234801561001057600080fd5b50604051610af1380380610af183398101604081905261002f91610095565b600060048190556001600281905533825260036020526040822081905581546001600160a01b039485166001600160a01b03199182161790925580549290931691161790556100c8565b80516001600160a01b038116811461009057600080fd5b919050565b600080604083850312156100a857600080fd5b6100b183610079565b91506100bf60208401610079565b90509250929050565b610a1a806100d76000396000f3fe608060405234801561001057600080fd5b50600436106100935760003560e01c806344263f371161006657806344263f37146100fb5780634a36393d1461010e57806387d11c691461012e578063c6361c2214610137578063c8daa8241461014a57600080fd5b80630db0262214610098578063128b0a5d146100b357806313af4035146100d357806340ea4190146100e8575b600080fd5b6100a160025481565b60405190815260200160405180910390f35b6100a16100c136600461059c565b60036020526000908152604090205481565b6100e66100e136600461059c565b61015d565b005b6100e66100f6366004610661565b61024b565b6100e661010936600461071f565b610315565b6100a161011c36600461059c565b60056020526000908152604090205481565b6100a160045481565b6100e6610145366004610776565b6103d9565b6100e661015836600461059c565b6104a0565b336000908152600360205260409020546101925760405162461bcd60e51b81526004016101899061080f565b60405180910390fd5b33600090815260056020526040902054156101bf5760405162461bcd60e51b815260040161018990610851565b6001600160a01b0381166000908152600360205260409020541561021c5760405162461bcd60e51b815260206004820152601460248201527327bbb732b91030b63932b0b23c9030b23232b21760611b6044820152606401610189565b60025461022a906001610881565b60028190556001600160a01b03909116600090815260036020526040902055565b336000908152600360205260409020546102775760405162461bcd60e51b81526004016101899061080f565b33600090815260056020526040902054156102a45760405162461bcd60e51b815260040161018990610851565b60015460405163040ea41960e41b81526001600160a01b03909116906340ea4190906102dc90889088908890889088906004016108f4565b600060405180830381600087803b1580156102f657600080fd5b505af115801561030a573d6000803e3d6000fd5b505050505050505050565b336000908152600360205260409020546103415760405162461bcd60e51b81526004016101899061080f565b336000908152600560205260409020541561036e5760405162461bcd60e51b815260040161018990610851565b6001546040516344263f3760e01b81526001600160a01b03909116906344263f37906103a29086908690869060040161095c565b600060405180830381600087803b1580156103bc57600080fd5b505af11580156103d0573d6000803e3d6000fd5b50505050505050565b336000908152600360205260409020546104055760405162461bcd60e51b81526004016101899061080f565b33600090815260056020526040902054156104325760405162461bcd60e51b815260040161018990610851565b60005460405163631b0e1160e11b81526001600160a01b039091169063c6361c229061046890879087908790879060040161098f565b600060405180830381600087803b15801561048257600080fd5b505af1158015610496573d6000803e3d6000fd5b5050505050505050565b336000908152600360205260409020546104cc5760405162461bcd60e51b81526004016101899061080f565b33600090815260056020526040902054156104f95760405162461bcd60e51b815260040161018990610851565b6001600160a01b03811633036105515760405162461bcd60e51b815260206004820152601960248201527f596f752063616e6e6f7420626c6f636b20796f757273656c66000000000000006044820152606401610189565b60045461055f906001610881565b60048190556001600160a01b03909116600090815260056020526040902055565b80356001600160a01b038116811461059757600080fd5b919050565b6000602082840312156105ae57600080fd5b6105b782610580565b9392505050565b634e487b7160e01b600052604160045260246000fd5b600082601f8301126105e557600080fd5b813567ffffffffffffffff80821115610600576106006105be565b604051601f8301601f19908116603f01168101908282118183101715610628576106286105be565b8160405283815286602085880101111561064157600080fd5b836020870160208301376000602085830101528094505050505092915050565b600080600080600060a0868803121561067957600080fd5b853567ffffffffffffffff8082111561069157600080fd5b61069d89838a016105d4565b965060208801359150808211156106b357600080fd5b6106bf89838a016105d4565b955060408801359150808211156106d557600080fd5b6106e189838a016105d4565b945060608801359150808211156106f757600080fd5b50610704888289016105d4565b92505061071360808701610580565b90509295509295909350565b60008060006060848603121561073457600080fd5b833567ffffffffffffffff81111561074b57600080fd5b610757868287016105d4565b9350506020840135915061076d60408501610580565b90509250925092565b6000806000806080858703121561078c57600080fd5b61079585610580565b9350602085013567ffffffffffffffff808211156107b257600080fd5b6107be888389016105d4565b945060408701359150808211156107d457600080fd5b6107e0888389016105d4565b935060608701359150808211156107f657600080fd5b50610803878288016105d4565b91505092959194509250565b60208082526022908201527f4f6e6c79206f776e65722063616e2063616c6c20746869732066756e6374696f604082015261371760f11b606082015260800190565b6020808252601690820152752cb7ba903430bb32903132b2b710313637b1b5b2b21760511b604082015260600190565b600082198211156108a257634e487b7160e01b600052601160045260246000fd5b500190565b6000815180845260005b818110156108cd576020818501810151868301820152016108b1565b818111156108df576000602083870101525b50601f01601f19169290920160200192915050565b60a08152600061090760a08301886108a7565b828103602084015261091981886108a7565b9050828103604084015261092d81876108a7565b9050828103606084015261094181866108a7565b91505060018060a01b03831660808301529695505050505050565b60608152600061096f60608301866108a7565b6020830194909452506001600160a01b0391909116604090910152919050565b6001600160a01b03851681526080602082018190526000906109b3908301866108a7565b82810360408401526109c581866108a7565b905082810360608401526109d981856108a7565b97965050505050505056fea264697066735822122071d95f989201a7368085304bf8a4078083c1468b1b30b66d05511ab19fa040fd64736f6c634300080e0033",
  "bytecodeSha1": "4727e593089dfd9389f367efe0f198a2168b9aaf",
  "compiler": {
    "evm_version": "istanbul",
    "optimizer": {
      "enabled": true,
      "runs": 200
    },
    "version": "0.8.14+commit.80d49f37"
  },
  "contractName": "Admin",
  "language": "Solidity",
  "natspec": {
    "kind": "dev",
    "methods": {},
    "version": 1
  },
  "opcodes": "PUSH1 0x80 PUSH1 0x40 MSTORE CALLVALUE DUP1 ISZERO PUSH2 0x10 JUMPI PUSH1 0x0 DUP1 REVERT JUMPDEST POP PUSH1 0x4 CALLDATASIZE LT PUSH2 0x93 JUMPI PUSH1 0x0 CALLDATALOAD PUSH1 0xE0 SHR DUP1 PUSH4 0x44263F37 GT PUSH2 0x66 JUMPI DUP1 PUSH4 0x44263F37 EQ PUSH2 0xFB JUMPI DUP1 PUSH4 0x4A36393D EQ PUSH2 0x10E JUMPI DUP1 PUSH4 0x87D11C69 EQ PUSH2 0x12E JUMPI DUP1 PUSH4 0xC6361C22 EQ PUSH2 0x137 JUMPI DUP1 PUSH4 0xC8DAA824 EQ PUSH2 0x14A JUMPI PUSH1 0x0 DUP1 REVERT JUMPDEST DUP1 PUSH4 0xDB02622 EQ PUSH2 0x98 JUMPI DUP1 PUSH4 0x128B0A5D EQ PUSH2 0xB3 JUMPI DUP1 PUSH4 0x13AF4035 EQ PUSH2 0xD3 JUMPI DUP1 PUSH4 0x40EA4190 EQ PUSH2 0xE8 JUMPI JUMPDEST PUSH1 0x0 DUP1 REVERT JUMPDEST PUSH2 0xA1 PUSH1 0x2 SLOAD DUP2 JUMP JUMPDEST PUSH1 0x40 MLOAD SWAP1 DUP2 MSTORE PUSH1 0x20 ADD PUSH1 0x40 MLOAD DUP1 SWAP2 SUB SWAP1 RETURN JUMPDEST PUSH2 0xA1 PUSH2 0xC1 CALLDATASIZE PUSH1 0x4 PUSH2 0x59C JUMP JUMPDEST PUSH1 0x3 PUSH1 0x20 MSTORE PUSH1 0x0 SWAP1 DUP2 MSTORE PUSH1 0x40 SWAP1 KECCAK256 SLOAD DUP2 JUMP JUMPDEST PUSH2 0xE6 PUSH2 0xE1 CALLDATASIZE PUSH1 0x4 PUSH2 0x59C JUMP JUMPDEST PUSH2 0x15D JUMP JUMPDEST STOP JUMPDEST PUSH2 0xE6 PUSH2 0xF6 CALLDATASIZE PUSH1 0x4 PUSH2 0x661 JUMP JUMPDEST PUSH2 0x24B JUMP JUMPDEST PUSH2 0xE6 PUSH2 0x109 CALLDATASIZE PUSH1 0x4 PUSH2 0x71F JUMP JUMPDEST PUSH2 0x315 JUMP JUMPDEST PUSH2 0xA1 PUSH2 0x11C CALLDATASIZE PUSH1 0x4 PUSH2 0x59C JUMP JUMPDEST PUSH1 0x5 PUSH1 0x20 MSTORE PUSH1 0x0 SWAP1 DUP2 MSTORE PUSH1 0x40 SWAP1 KECCAK256 SLOAD DUP2 JUMP JUMPDEST PUSH2 0xA1 PUSH1 0x4 SLOAD DUP2 JUMP JUMPDEST PUSH2 0xE6 PUSH2 0x145 CALLDATASIZE PUSH1 0x4 PUSH2 0x776 JUMP JUMPDEST PUSH2 0x3D9 JUMP JUMPDEST PUSH2 0xE6 PUSH2 0x158 CALLDATASIZE PUSH1 0x4 PUSH2 0x59C JUMP JUMPDEST PUSH2 0x4A0 JUMP JUMPDEST CALLER PUSH1 0x0 SWAP1 DUP2 MSTORE PUSH1 0x3 PUSH1 0x20 MSTORE PUSH1 0x40 SWAP1 KECCAK256 SLOAD PUSH2 0x192 JUMPI PUSH1 0x40 MLOAD PUSH3 0x461BCD PUSH1 0xE5 SHL DUP2 MSTORE PUSH1 0x4 ADD PUSH2 0x189 SWAP1 PUSH2 0x80F JUMP JUMPDEST PUSH1 0x40 MLOAD DUP1 SWAP2 SUB SWAP1 REVERT JUMPDEST CALLER PUSH1 0x0 SWAP1 DUP2 MSTORE PUSH1 0x5 PUSH1 0x20 MSTORE PUSH1 0x40 SWAP1 KECCAK256 SLOAD ISZERO PUSH2 0x1BF JUMPI PUSH1 0x40 MLOAD PUSH3 0x461BCD PUSH1 0xE5 SHL DUP2 MSTORE PUSH1 0x4 ADD PUSH2 0x189 SWAP1 PUSH2 0x851 JUMP JUMPDEST PUSH1 0x1 PUSH1 0x1 PUSH1 0xA0 SHL SUB DUP2 AND PUSH1 0x0 SWAP1 DUP2 MSTORE PUSH1 0x3 PUSH1 0x20 MSTORE PUSH1 0x40 SWAP1 KECCAK256 SLOAD ISZERO PUSH2 0x21C JUMPI PUSH1 0x40 MLOAD PUSH3 0x461BCD PUSH1 0xE5 SHL DUP2 MSTORE PUSH1 0x20 PUSH1 0x4 DUP3 ADD MSTORE PUSH1 0x14 PUSH1 0x24 DUP3 ADD MSTORE PUSH20 0x27BBB732B91030B63932B0B23C9030B23232B217 PUSH1 0x61 SHL PUSH1 0x44 DUP3 ADD MSTORE PUSH1 0x64 ADD PUSH2 0x189 JUMP JUMPDEST PUSH1 0x2 SLOAD PUSH2 0x22A SWAP1 PUSH1 0x1 PUSH2 0x881 JUMP JUMPDEST PUSH1 0x2 DUP2 SWAP1 SSTORE PUSH1 0x1 PUSH1 0x1 PUSH1 0xA0 SHL SUB SWAP1 SWAP2 AND PUSH1 0x0 SWAP1 DUP2 MSTORE PUSH1 0x3 PUSH1 0x20 MSTORE PUSH1 0x40 SWAP1 KECCAK256 SSTORE JUMP JUMPDEST CALLER PUSH1 0x0 SWAP1 DUP2 MSTORE PUSH1 0x3 PUSH1 0x20 MSTORE PUSH1 0x40 SWAP1 KECCAK256 SLOAD PUSH2 0x277 JUMPI PUSH1 0x40 MLOAD PUSH3 0x461BCD PUSH1 0xE5 SHL DUP2 MSTORE PUSH1 0x4 ADD PUSH2 0x189 SWAP1 PUSH2 0x80F JUMP JUMPDEST CALLER PUSH1 0x0 SWAP1 DUP2 MSTORE PUSH1 0x5 PUSH1 0x20 MSTORE PUSH1 0x40 SWAP1 KECCAK256 SLOAD ISZERO PUSH2 0x2A4 JUMPI PUSH1 0x40 MLOAD PUSH3 0x461BCD PUSH1 0xE5 SHL DUP2 MSTORE PUSH1 0x4 ADD PUSH2 0x189 SWAP1 PUSH2 0x851 JUMP JUMPDEST PUSH1 0x1 SLOAD PUSH1 0x40 MLOAD PUSH4 0x40EA419 PUSH1 0xE4 SHL DUP2 MSTORE PUSH1 0x1 PUSH1 0x1 PUSH1 0xA0 SHL SUB SWAP1 SWAP2 AND SWAP1 PUSH4 0x40EA4190 SWAP1 PUSH2 0x2DC SWAP1 DUP9 SWAP1 DUP9 SWAP1 DUP9 SWAP1 DUP9 SWAP1 DUP9 SWAP1 PUSH1 0x4 ADD PUSH2 0x8F4 JUMP JUMPDEST PUSH1 0x0 PUSH1 0x40 MLOAD DUP1 DUP4 SUB DUP2 PUSH1 0x0 DUP8 DUP1 EXTCODESIZE ISZERO DUP1 ISZERO PUSH2 0x2F6 JUMPI PUSH1 0x0 DUP1 REVERT JUMPDEST POP GAS CALL ISZERO DUP1 ISZERO PUSH2 0x30A JUMPI RETURNDATASIZE PUSH1 0x0 DUP1 RETURNDATACOPY RETURNDATASIZE PUSH1 0x0 REVERT JUMPDEST POP POP POP POP POP POP POP POP POP JUMP JUMPDEST CALLER PUSH1 0x0 SWAP1 DUP2 MSTORE PUSH1 0x3 PUSH1 0x20 MSTORE PUSH1 0x40 SWAP1 KECCAK256 SLOAD PUSH2 0x341 JUMPI PUSH1 0x40 MLOAD PUSH3 0x461BCD PUSH1 0xE5 SHL DUP2 MSTORE PUSH1 0x4 ADD PUSH2 0x189 SWAP1 PUSH2 0x80F JUMP JUMPDEST CALLER PUSH1 0x0 SWAP1 DUP2 MSTORE PUSH1 0x5 PUSH1 0x20 MSTORE PUSH1 0x40 SWAP1 KECCAK256 SLOAD ISZERO PUSH2 0x36E JUMPI PUSH1 0x40 MLOAD PUSH3 0x461BCD PUSH1 0xE5 SHL DUP2 MSTORE PUSH1 0x4 ADD PUSH2 0x189 SWAP1 PUSH2 0x851 JUMP JUMPDEST PUSH1 0x1 SLOAD PUSH1 0x40 MLOAD PUSH4 0x44263F37 PUSH1 0xE0 SHL DUP2 MSTORE PUSH1 0x1 PUSH1 0x1 PUSH1 0xA0 SHL SUB SWAP1 SWAP2 AND SWAP1 PUSH4 0x44263F37 SWAP1 PUSH2 0x3A2 SWAP1 DUP7 SWAP1 DUP7 SWAP1 DUP7 SWAP1 PUSH1 0x4 ADD PUSH2 0x95C JUMP JUMPDEST PUSH1 0x0 PUSH1 0x40 MLOAD DUP1 DUP4 SUB DUP2 PUSH1 0x0 DUP8 DUP1 EXTCODESIZE ISZERO DUP1 ISZERO PUSH2 0x3BC JUMPI PUSH1 0x0 DUP1 REVERT JUMPDEST POP GAS CALL ISZERO DUP1 ISZERO PUSH2 0x3D0 JUMPI RETURNDATASIZE PUSH1 0x0 DUP1 RETURNDATACOPY RETURNDATASIZE PUSH1 0x0 REVERT JUMPDEST POP POP POP POP POP POP POP JUMP JUMPDEST CALLER PUSH1 0x0 SWAP1 DUP2 MSTORE PUSH1 0x3 PUSH1 0x20 MSTORE PUSH1 0x40 SWAP1 KECCAK256 SLOAD PUSH2 0x405 JUMPI PUSH1 0x40 MLOAD PUSH3 0x461BCD PUSH1 0xE5 SHL DUP2 MSTORE PUSH1 0x4 ADD PUSH2 0x189 SWAP1 PUSH2 0x80F JUMP JUMPDEST CALLER PUSH1 0x0 SWAP1 DUP2 MSTORE PUSH1 0x5 PUSH1 0x20 MSTORE PUSH1 0x40 SWAP1 KECCAK256 SLOAD ISZERO PUSH2 0x432 JUMPI PUSH1 0x40 MLOAD PUSH3 0x461BCD PUSH1 0xE5 SHL DUP2 MSTORE PUSH1 0x4 ADD PUSH2 0x189 SWAP1 PUSH2 0x851 JUMP JUMPDEST PUSH1 0x0 SLOAD PUSH1 0x40 MLOAD PUSH4 0x631B0E11 PUSH1 0xE1 SHL DUP2 MSTORE PUSH1 0x1 PUSH1 0x1 PUSH1 0xA0 SHL SUB SWAP1 SWAP2 AND SWAP1 PUSH4 0xC6361C22 SWAP1 PUSH2 0x468 SWAP1 DUP8 SWAP1 DUP8 SWAP1 DUP8 SWAP1 DUP8 SWAP1 PUSH1 0x4 ADD PUSH2 0x98F JUMP JUMPDEST PUSH1 0x0 PUSH1 0x40 MLOAD DUP1 DUP4 SUB DUP2 PUSH1 0x0 DUP8 DUP1 EXTCODESIZE ISZERO DUP1 ISZERO PUSH2 0x482 JUMPI PUSH1 0x0 DUP1 REVERT JUMPDEST POP GAS CALL ISZERO DUP1 ISZERO PUSH2 0x496 JUMPI RETURNDATASIZE PUSH1 0x0 DUP1 RETURNDATACOPY RETURNDATASIZE PUSH1 0x0 REVERT JUMPDEST POP POP POP POP POP POP POP POP JUMP JUMPDEST CALLER PUSH1 0x0 SWAP1 DUP2 MSTORE PUSH1 0x3 PUSH1 0x20 MSTORE PUSH1 0x40 SWAP1 KECCAK256 SLOAD PUSH2 0x4CC JUMPI PUSH1 0x40 MLOAD PUSH3 0x461BCD PUSH1 0xE5 SHL DUP2 MSTORE PUSH1 0x4 ADD PUSH2 0x189 SWAP1 PUSH2 0x80F JUMP JUMPDEST CALLER PUSH1 0x0 SWAP1 DUP2 MSTORE PUSH1 0x5 PUSH1 0x20 MSTORE PUSH1 0x40 SWAP1 KECCAK256 SLOAD ISZERO PUSH2 0x4F9 JUMPI PUSH1 0x40 MLOAD PUSH3 0x461BCD PUSH1 0xE5 SHL DUP2 MSTORE PUSH1 0x4 ADD PUSH2 0x189 SWAP1 PUSH2 0x851 JUMP JUMPDEST PUSH1 0x1 PUSH1 0x1 PUSH1 0xA0 SHL SUB DUP2 AND CALLER SUB PUSH2 0x551 JUMPI PUSH1 0x40 MLOAD PUSH3 0x461BCD PUSH1 0xE5 SHL DUP2 MSTORE PUSH1 0x20 PUSH1 0x4 DUP3 ADD MSTORE PUSH1 0x19 PUSH1 0x24 DUP3 ADD MSTORE PUSH32 0x596F752063616E6E6F7420626C6F636B20796F757273656C6600000000000000 PUSH1 0x44 DUP3 ADD MSTORE PUSH1 0x64 ADD PUSH2 0x189 JUMP JUMPDEST PUSH1 0x4 SLOAD PUSH2 0x55F SWAP1 PUSH1 0x1 PUSH2 0x881 JUMP JUMPDEST PUSH1 0x4 DUP2 SWAP1 SSTORE PUSH1 0x1 PUSH1 0x1 PUSH1 0xA0 SHL SUB SWAP1 SWAP2 AND PUSH1 0x0 SWAP1 DUP2 MSTORE PUSH1 0x5 PUSH1 0x20 MSTORE PUSH1 0x40 SWAP1 KECCAK256 SSTORE JUMP JUMPDEST DUP1 CALLDATALOAD PUSH1 0x1 PUSH1 0x1 PUSH1 0xA0 SHL SUB DUP2 AND DUP2 EQ PUSH2 0x597 JUMPI PUSH1 0x0 DUP1 REVERT JUMPDEST SWAP2 SWAP1 POP JUMP JUMPDEST PUSH1 0x0 PUSH1 0x20 DUP3 DUP5 SUB SLT ISZERO PUSH2 0x5AE JUMPI PUSH1 0x0 DUP1 REVERT JUMPDEST PUSH2 0x5B7 DUP3 PUSH2 0x580 JUMP JUMPDEST SWAP4 SWAP3 POP POP POP JUMP JUMPDEST PUSH4 0x4E487B71 PUSH1 0xE0 SHL PUSH1 0x0 MSTORE PUSH1 0x41 PUSH1 0x4 MSTORE PUSH1 0x24 PUSH1 0x0 REVERT JUMPDEST PUSH1 0x0 DUP3 PUSH1 0x1F DUP4 ADD SLT PUSH2 0x5E5 JUMPI PUSH1 0x0 DUP1 REVERT JUMPDEST DUP2 CALLDATALOAD PUSH8 0xFFFFFFFFFFFFFFFF DUP1 DUP3 GT ISZERO PUSH2 0x600 JUMPI PUSH2 0x600 PUSH2 0x5BE JUMP JUMPDEST PUSH1 0x40 MLOAD PUSH1 0x1F DUP4 ADD PUSH1 0x1F NOT SWAP1 DUP2 AND PUSH1 0x3F ADD AND DUP2 ADD SWAP1 DUP3 DUP3 GT DUP2 DUP4 LT OR ISZERO PUSH2 0x628 JUMPI PUSH2 0x628 PUSH2 0x5BE JUMP JUMPDEST DUP2 PUSH1 0x40 MSTORE DUP4 DUP2 MSTORE DUP7 PUSH1 0x20 DUP6 DUP9 ADD ADD GT ISZERO PUSH2 0x641 JUMPI PUSH1 0x0 DUP1 REVERT JUMPDEST DUP4 PUSH1 0x20 DUP8 ADD PUSH1 0x20 DUP4 ADD CALLDATACOPY PUSH1 0x0 PUSH1 0x20 DUP6 DUP4 ADD ADD MSTORE DUP1 SWAP5 POP POP POP POP POP SWAP3 SWAP2 POP POP JUMP JUMPDEST PUSH1 0x0 DUP1 PUSH1 0x0 DUP1 PUSH1 0x0 PUSH1 0xA0 DUP7 DUP9 SUB SLT ISZERO PUSH2 0x679 JUMPI PUSH1 0x0 DUP1 REVERT JUMPDEST DUP6 CALLDATALOAD PUSH8 0xFFFFFFFFFFFFFFFF DUP1 DUP3 GT ISZERO PUSH2 0x691 JUMPI PUSH1 0x0 DUP1 REVERT JUMPDEST PUSH2 0x69D DUP10 DUP4 DUP11 ADD PUSH2 0x5D4 JUMP JUMPDEST SWAP7 POP PUSH1 0x20 DUP9 ADD CALLDATALOAD SWAP2 POP DUP1 DUP3 GT ISZERO PUSH2 0x6B3 JUMPI PUSH1 0x0 DUP1 REVERT JUMPDEST PUSH2 0x6BF DUP10 DUP4 DUP11 ADD PUSH2 0x5D4 JUMP JUMPDEST SWAP6 POP PUSH1 0x40 DUP9 ADD CALLDATALOAD SWAP2 POP DUP1 DUP3 GT ISZERO PUSH2 0x6D5 JUMPI PUSH1 0x0 DUP1 REVERT JUMPDEST PUSH2 0x6E1 DUP10 DUP4 DUP11 ADD PUSH2 0x5D4 JUMP JUMPDEST SWAP5 POP PUSH1 0x60 DUP9 ADD CALLDATALOAD SWAP2 POP DUP1 DUP3 GT ISZERO PUSH2 0x6F7 JUMPI PUSH1 0x0 DUP1 REVERT JUMPDEST POP PUSH2 0x704 DUP9 DUP3 DUP10 ADD PUSH2 0x5D4 JUMP JUMPDEST SWAP3 POP POP PUSH2 0x713 PUSH1 0x80 DUP8 ADD PUSH2 0x580 JUMP JUMPDEST SWAP1 POP SWAP3 SWAP6 POP SWAP3 SWAP6 SWAP1 SWAP4 POP JUMP JUMPDEST PUSH1 0x0 DUP1 PUSH1 0x0 PUSH1 0x60 DUP5 DUP7 SUB SLT ISZERO PUSH2 0x734 JUMPI PUSH1 0x0 DUP1 REVERT JUMPDEST DUP4 CALLDATALOAD PUSH8 0xFFFFFFFFFFFFFFFF DUP2 GT ISZERO PUSH2 0x74B JUMPI PUSH1 0x0 DUP1 REVERT JUMPDEST PUSH2 0x757 DUP7 DUP3 DUP8 ADD PUSH2 0x5D4 JUMP JUMPDEST SWAP4 POP POP PUSH1 0x20 DUP5 ADD CALLDATALOAD SWAP2 POP PUSH2 0x76D PUSH1 0x40 DUP6 ADD PUSH2 0x580 JUMP JUMPDEST SWAP1 POP SWAP3 POP SWAP3 POP SWAP3 JUMP JUMPDEST PUSH1 0x0 DUP1 PUSH1 0x0 DUP1 PUSH1 0x80 DUP6 DUP8 SUB SLT ISZERO PUSH2 0x78C JUMPI PUSH1 0x0 DUP1 REVERT JUMPDEST PUSH2 0x795 DUP6 PUSH2 0x580 JUMP JUMPDEST SWAP4 POP PUSH1 0x20 DUP6 ADD CALLDATALOAD PUSH8 0xFFFFFFFFFFFFFFFF DUP1 DUP3 GT ISZERO PUSH2 0x7B2 JUMPI PUSH1 0x0 DUP1 REVERT JUMPDEST PUSH2 0x7BE DUP9 DUP4 DUP10 ADD PUSH2 0x5D4 JUMP JUMPDEST SWAP5 POP PUSH1 0x40 DUP8 ADD CALLDATALOAD SWAP2 POP DUP1 DUP3 GT ISZERO PUSH2 0x7D4 JUMPI PUSH1 0x0 DUP1 REVERT JUMPDEST PUSH2 0x7E0 DUP9 DUP4 DUP10 ADD PUSH2 0x5D4 JUMP JUMPDEST SWAP4 POP PUSH1 0x60 DUP8 ADD CALLDATALOAD SWAP2 POP DUP1 DUP3 GT ISZERO PUSH2 0x7F6 JUMPI PUSH1 0x0 DUP1 REVERT JUMPDEST POP PUSH2 0x803 DUP8 DUP3 DUP9 ADD PUSH2 0x5D4 JUMP JUMPDEST SWAP2 POP POP SWAP3 SWAP6 SWAP2 SWAP5 POP SWAP3 POP JUMP JUMPDEST PUSH1 0x20 DUP1 DUP3 MSTORE PUSH1 0x22 SWAP1 DUP3 ADD MSTORE PUSH32 0x4F6E6C79206F776E65722063616E2063616C6C20746869732066756E6374696F PUSH1 0x40 DUP3 ADD MSTORE PUSH2 0x3717 PUSH1 0xF1 SHL PUSH1 0x60 DUP3 ADD MSTORE PUSH1 0x80 ADD SWAP1 JUMP JUMPDEST PUSH1 0x20 DUP1 DUP3 MSTORE PUSH1 0x16 SWAP1 DUP3 ADD MSTORE PUSH22 0x2CB7BA903430BB32903132B2B710313637B1B5B2B217 PUSH1 0x51 SHL PUSH1 0x40 DUP3 ADD MSTORE PUSH1 0x60 ADD SWAP1 JUMP JUMPDEST PUSH1 0x0 DUP3 NOT DUP3 GT ISZERO PUSH2 0x8A2 JUMPI PUSH4 0x4E487B71 PUSH1 0xE0 SHL PUSH1 0x0 MSTORE PUSH1 0x11 PUSH1 0x4 MSTORE PUSH1 0x24 PUSH1 0x0 REVERT JUMPDEST POP ADD SWAP1 JUMP JUMPDEST PUSH1 0x0 DUP2 MLOAD DUP1 DUP5 MSTORE PUSH1 0x0 JUMPDEST DUP2 DUP2 LT ISZERO PUSH2 0x8CD JUMPI PUSH1 0x20 DUP2 DUP6 ADD DUP2 ADD MLOAD DUP7 DUP4 ADD DUP3 ADD MSTORE ADD PUSH2 0x8B1 JUMP JUMPDEST DUP2 DUP2 GT ISZERO PUSH2 0x8DF JUMPI PUSH1 0x0 PUSH1 0x20 DUP4 DUP8 ADD ADD MSTORE JUMPDEST POP PUSH1 0x1F ADD PUSH1 0x1F NOT AND SWAP3 SWAP1 SWAP3 ADD PUSH1 0x20 ADD SWAP3 SWAP2 POP POP JUMP JUMPDEST PUSH1 0xA0 DUP2 MSTORE PUSH1 0x0 PUSH2 0x907 PUSH1 0xA0 DUP4 ADD DUP9 PUSH2 0x8A7 JUMP JUMPDEST DUP3 DUP2 SUB PUSH1 0x20 DUP5 ADD MSTORE PUSH2 0x919 DUP2 DUP9 PUSH2 0x8A7 JUMP JUMPDEST SWAP1 POP DUP3 DUP2 SUB PUSH1 0x40 DUP5 ADD MSTORE PUSH2 0x92D DUP2 DUP8 PUSH2 0x8A7 JUMP JUMPDEST SWAP1 POP DUP3 DUP2 SUB PUSH1 0x60 DUP5 ADD MSTORE PUSH2 0x941 DUP2 DUP7 PUSH2 0x8A7 JUMP JUMPDEST SWAP2 POP POP PUSH1 0x1 DUP1 PUSH1 0xA0 SHL SUB DUP4 AND PUSH1 0x80 DUP4 ADD MSTORE SWAP7 SWAP6 POP POP POP POP POP POP JUMP JUMPDEST PUSH1 0x60 DUP2 MSTORE PUSH1 0x0 PUSH2 0x96F PUSH1 0x60 DUP4 ADD DUP7 PUSH2 0x8A7 JUMP JUMPDEST PUSH1 0x20 DUP4 ADD SWAP5 SWAP1 SWAP5 MSTORE POP PUSH1 0x1 PUSH1 0x1 PUSH1 0xA0 SHL SUB SWAP2 SWAP1 SWAP2 AND PUSH1 0x40 SWAP1 SWAP2 ADD MSTORE SWAP2 SWAP1 POP JUMP JUMPDEST PUSH1 0x1 PUSH1 0x1 PUSH1 0xA0 SHL SUB DUP6 AND DUP2 MSTORE PUSH1 0x80 PUSH1 0x20 DUP3 ADD DUP2 SWAP1 MSTORE PUSH1 0x0 SWAP1 PUSH2 0x9B3 SWAP1 DUP4 ADD DUP7 PUSH2 0x8A7 JUMP JUMPDEST DUP3 DUP2 SUB PUSH1 0x40 DUP5 ADD MSTORE PUSH2 0x9C5 DUP2 DUP7 PUSH2 0x8A7 JUMP JUMPDEST SWAP1 POP DUP3 DUP2 SUB PUSH1 0x60 DUP5 ADD MSTORE PUSH2 0x9D9 DUP2 DUP6 PUSH2 0x8A7 JUMP JUMPDEST SWAP8 SWAP7 POP POP POP POP POP POP POP JUMP INVALID LOG2 PUSH5 0x6970667358 0x22 SLT KECCAK256 PUSH18 0xD95F989201A7368085304BF8A4078083C146 DUP12 SHL ADDRESS 0xB6 PUSH14 0x5511AB19FA040FD64736F6C6343 STOP ADDMOD 0xE STOP CALLER ",
  "sha1": "2478bf1019487bb8fbf2c04c1face28dc7da6be4",
  "source": "// SPDX-License-Identifier: MIT\n\nimport \"./login.sol\";\nimport \"./web3club.sol\";\npragma solidity 0.8.14;\n\ncontract Admin {\n    BitUser bituser;\n    Web3Club web3Club;\n\n    uint256 public ownerCount;\n    mapping(address => uint256) public ownerToOwnerId;\n    uint256 public blockedOwnerCount;\n    mapping(address => uint256) public blockedOwnerToOwnerId;\n\n    constructor(address _bitUser, address _web3Club) {\n        blockedOwnerCount = 0;\n        ownerCount = 1;\n        ownerToOwnerId[msg.sender] = ownerCount;\n        bituser = BitUser(_bitUser);\n        web3Club = Web3Club(_web3Club);\n    }\n\n    modifier onlyOwner() {\n        require(\n            ownerToOwnerId[msg.sender] > 0,\n            \"Only owner can call this function.\"\n        );\n        require(\n            blockedOwnerToOwnerId[msg.sender] == 0,\n            \"You have been blocked.\"\n        );\n        _;\n    }\n\n    function setOwner(address _newOwner) public onlyOwner {\n        require(ownerToOwnerId[_newOwner] == 0, \"Owner already added.\");\n        ownerCount = ownerCount + 1;\n        ownerToOwnerId[_newOwner] = ownerCount;\n    }\n\n    function blockOwner(address _owner) external onlyOwner {\n        require(msg.sender != _owner, \"You cannot block yourself\");\n        blockedOwnerCount = blockedOwnerCount + 1;\n        blockedOwnerToOwnerId[_owner] = blockedOwnerCount;\n    }\n\n    function addUser(\n        address _userAddress,\n        string memory _userName,\n        string memory _userDescription,\n        string memory _profilepic\n    ) public onlyOwner {\n        bituser.addUser(_userAddress, _userName, _userDescription, _profilepic);\n    }\n\n    function addClub(\n        string memory _clubName,\n        string memory _clubDescription,\n        string memory _clubProfilePic,\n        string memory _clubcategory,\n        address _admin\n    ) public onlyOwner {\n        web3Club.addClub(\n            _clubName,\n            _clubDescription,\n            _clubProfilePic,\n            _clubcategory,\n            _admin\n        );\n    }\n\n    function addPost(\n        string memory _postContent,\n        uint256 _clubId,\n        address _postedBy\n    ) public onlyOwner {\n        web3Club.addPost(_postContent, _clubId, _postedBy);\n    }\n}\n",
  "sourcePath": "contracts/web3clubcontracts/contracts/admin.sol",
  "type": "contract"
}